:100000000C942A000C9447000C9447000C94470071
:100010000C9447000C9447000C9447000C94470044
:100020000C9447000C9447000C9447000C94470034
:100030000C9447000C9447000C9447000C94470024
:100040000C9447000C9447000C9447000C94470014
:100050000C94470011241FBECFE5D8E0DEBFCDBF12
:1000600010E0A0E6B0E0EEE2F6E002C005900D92EE
:10007000A43BB107D9F720E0A4EBB0E001C01D928A
:10008000AC3BB207E1F70E94D4010C9415030C9429
:100090000000DF92EF92FF920F931F93CF93DF93B5
:1000A0009091A200923050F0923051F1DF91CF91B7
:1000B0001F910F91FF90EF90DF90089527E0D22ECF
:1000C000E82EF12C0AE910E0C0E0D0E00AC061E0BF
:1000D000F80180810E949D0221960F5F1F4FCD1570
:1000E00028F7C7010C2E02C0959587950A94E2F770
:1000F00080FDEDCF60E0F80180810E949D02ECCF91
:1001000094E0D92EDDCF0F931F93CF93DF9380918F
:10011000A200823058F0823019F18091A300833020
:10012000B1F0DF91CF911F910F910895D7E00AE9C7
:1001300010E0C0E060E0F80181918F010E941D0293
:10014000CF5FCD17B8F38091A300833051F760E003
:100150008091A100DF91CF911F910F910C941D020E
:10016000D4E0E5CF9091A200992321F0913051F095
:100170000C944900E82FF0E0EC55FF4F808180950A
:100180000C944900E82FF0E0EC55FF4F80810C946F
:100190004900CF93DF93D82F61E089E00E949D0250
:1001A000CDECDC9FC12D1124C695C695C6958D2F2B
:1001B0009AE0C99F801911240E94B2008FE697E14E
:1001C0000197F1F700C0000060E089E00E949D0205
:1001D00061E088E00E949D028C2F0E94B2008FE6B1
:1001E00097E10197F1F700C0000060E088E0DF913F
:1001F000CF910C949D028EE00E94DB02811109C018
:100200008091B4008823A9F08091BB00823039F03E
:1002100008951092B4008091BB008230C9F710920B
:10022000BB0060E08BE00E949D0260E08CE00C94DB
:100230009D028091BB008F5F8093BB0061E08BE0EB
:100240000E949D0261E08CE00E949D028091B400BA
:100250008F5F8093B400D8CF1F93CF93DF938DE04F
:100260000E94DB0281115FC08091B90081115DC0E5
:100270008091BA008F5F8093BA00833008F078C015
:10028000C0E011E0813009F47FC0823041F582C0C6
:100290008091B800813009F45AC08FE00E94DB02DF
:1002A00081112DC08091B700811145C01093B70016
:1002B000D1E08EE00E94DB02811129C08091B6005E
:1002C000811137C01093B60091E0C13029F1C230DE
:1002D000A1F180916100809360000E94C90080912B
:1002E000B50081113EC08DE00E94DB02882381F2BF
:1002F0001093B8008FE00E94DB02882399F21092DD
:10030000B700D0E08EE00E94DB028823B9F21092A1
:10031000B60090E0C130D9F6809160008D1B890F46
:1003200080936100D8CF1092B900DF91CF911F91D7
:10033000089590E0CACFD0E0BCCF9D1B80916000B3
:100340002AE0929F800D112480936100C4CF909188
:10035000BA009F5F9093BA001092B8008093B500E6
:100360009CCF1092B5008091BA00833008F48ACFF8
:1003700081E08093B9001092BA0060E08CE0DF91D8
:10038000CF911F910C949D0261E08BE00E949D0231
:10039000C1E0A5CF60E08BE00E949D0261E08CE0AF
:1003A0000E949D02C2E09BCF0E948A020E948300AD
:1003B0008091600081111EC0CCE0D0E002C080912D
:1003C00060000E94C9008FE00E94DB02811104C01E
:1003D00080916100809360000E942C01219779F741
:1003E0008BE00E94F8028CE00E94F802809160008D
:1003F000882311F3C0EAD0E002C0809160000E941F
:10040000C9000E94FB008FE00E94DB02811104C042
:1004100080916100809360000E942C01219769F710
:100420008091BB00811106C0809160008150809353
:100430006000C0CF80916000BDCF282F2695269503
:1004400026958770613009F445C020F1623009F5C6
:1004500030E041E050E0BA0102C0660F771F8A9594
:10046000E2F7CB01F901EE0FFF1FE20FF31FEE0FD2
:10047000FF1FEE59FF4FA081B1819C91282F20953D
:1004800092239C930280F381E02D9081892B8083BD
:100490000895089530E041E050E0BA0102C0660FCF
:1004A000771F8A95E2F7CB01F901EE0FFF1FE20FEC
:1004B000F31FEE0FFF1FEE59FF4FA081B1819C91FA
:1004C000982B9C930280F381E02D90818095892365
:1004D0008083089530E041E050E0BA0102C0660F29
:1004E000771F8A95E2F7CB018095F901EE0FFF1F88
:1004F000E20FF31FEE0FFF1FEE59FF4FA081B181F6
:100500009C9198239C930280F381E02D9081892314
:10051000808308950F931F93CF930AE710E0C0E004
:10052000F80161918F018C2F0E941D02CF5FC032B4
:10053000B9F7CF911F910F910895282F26952695F1
:10054000269587706130E9F061111AC030E0F90139
:10055000EE0FFF1FE20FF31FEE0FFF1FEE59FF4FCD
:100560000280F381E02D408121E030E0B90102C03A
:10057000660F771F8A95E2F7CB01809584238083ED
:10058000089530E0F901EE0FFF1FE20FF31FEE0FA9
:10059000FF1FEE59FF4F0280F381E02D408121E0E3
:1005A00030E0B90102C0660F771F8A95E2F7CB01F0
:1005B000842B80830895282F26952695269530E054
:1005C000F901EE0FFF1FE20FF31FEE0FFF1FEE59B1
:1005D000FF4F0480F581E02D208130E08770A90174
:1005E00002C0559547958A95E2F7CA018170089532
:1005F000282F26952695269530E0F901EE0FFF1F4E
:10060000E20FF31FEE0FFF1FEE59FF4F0280F38141
:10061000E02D3081282F277081E090E001C0880F05
:0E0620002A95EAF7832780830895F894FFCF88
:10062E001E1E3A003B0039003700380036003400F9
:10063E0035003300310032003000000000000000B1
:10064E000000000000000002020200000000000096
:10065E00000000000000000000000001020304057D
:10066E00060800033F065B4F666D7D077F6F777C44
:04067E00395E7971F7
:00000001FF
